:1000000033C10000A3C4000076C4000049C400004E
:100010001CC40000EFC30000C2C3000095C3000071
:1000200068C3000052C1000050C100004EC1000072
:100030004CC100004AC1000048C1000046C1000098
:1000400044C1000042C1000040C100003EC10000A8
:100050003CC100003AC1000038C1000000C30000EC
:1000600034C100000C942D0A0C94040A2EC1000027
:100070002CC100002AC1000028C1000026C10000D8
:1000800024C1000022C1000020C100001EC10000E8
:100090001CC100001AC1000018C1000016C10000F8
:1000A00014C1000012C1000010C100000EC1000008
:1000B0000CC100000AC1000008C1000006C1000018
:1000C00004C1000002C1000000C100000C94CE0970
:1000D0000C94A509FAC00000F8C00000F6C00000AA
:1000E000F4C00000E201E501D401D801DE011C02E8
:1000F000E901ED01F301F701FB010102050209022B
:100100001C020F02130217024E414E494E49545928
:10011000494E46CDCCCC3D0AD7233C17B7D13877D2
:10012000CC2B329595E6241FB14F0A0000204100E8
:1001300000C84200401C4620BCBE4CCA1B0E5AAE32
:10014000C59D74000020002300260029002C002FEC
:100150000032000001000003010601090100002136
:1001600000240027002A002D003000330001010088
:1001700000040107010A0100002200250028002BCD
:10018000002E003100340002010000050108010BBF
:100190000105050505070508080808020202020A0C
:1001A0000A0808040404040101010101010101031A
:1001B00003030303030303040707070C0C0C0C0CD5
:1001C0000C0C0C0202020206060606060606060BC8
:1001D0000B0B0B0B0B0B0B0102102020080810203F
:1001E00040102040800201020108040201010204C3
:1001F0000810204080804020100804020180040282
:1002000001804020100804020108040201010204D8
:100210000810204080010204081020408000000ADD
:100220000B02090C0D0E080703040100000000007A
:1002300000000000000000000000000000000000BE
:10024000000000000000000000121110000000007B
:10025000000000000000000000000000000000009E
:1002600000000000A411380E11241FBECFEFD1E210
:10027000DEBFCDBF00E00CBF25E0A2EFB2E001C0C1
:100280001D92A637B207E1F712E0A0E0B2E0E8ED78
:10029000F0E300E00BBF02C007900D92A23FB10750
:1002A000D9F711E0C3E3D1E000E006C021970109CE
:1002B000802FFE010E942F16C233D10780E008076D
:1002C000A9F70E943E0E0C945B189ACEFC01918D0A
:1002D000828D981761F0828DDF01A80FB11D5D96A8
:1002E0008C91928D9F5F9F77928F90E008958FEF12
:1002F0009FEF0895FC01918D828D981731F0828DCA
:10030000E80FF11D858D90E008958FEF9FEF089520
:10031000FC01918D228D892F90E080589F4F821B88
:1003200091098F779927089580E090E0892B19F043
:100330007DD7811120C080E090E0892B41F080E0E2
:1003400090E0892B21F00E940000811117C080E00D
:1003500090E0892B19F061D7811113C080E090E003
:10036000892BA1F080E090E0892B81F00E940000B1
:1003700081110AC008950E940000DDCF0E94000094
:10038000E6CF0E940000EACF0C940000089590E0B0
:10039000FC013197E231F10508F04EC08827EE5894
:1003A000FF4F8F4F0C942F16809180008F7703C0E2
:1003B000809180008F7D80938000089580918000DF
:1003C000877FF9CF84B58F7702C084B58F7D84BDD8
:1003D00008958091B0008F7703C08091B0008F7D29
:1003E0008093B0000895809190008F7707C080912E
:1003F00090008F7D03C080919000877F8093900054
:1004000008958091A0008F7707C08091A0008F7D14
:1004100003C08091A000877F8093A0000895809101
:1004200020018F7707C0809120018F7D03C08091CC
:100430002001877F8093200108951F93CF93DF933E
:10044000282F30E0F901E35EFD4F8491F901E95274
:10045000FE4FD491F901EF56FE4FC491CC23B9F071
:10046000162F811194DFEC2FF0E0EE0FFF1FE958FB
:10047000FE4FA591B4919FB7F894111104C08C91CF
:10048000D095D82302C0EC91DE2BDC939FBFDF9187
:10049000CF911F9108953FB7F8948091FC029091FD
:1004A000FD02A091FE02B091FF0226B5A89B05C0F7
:1004B0002F3F19F00196A11DB11D3FBFBA2FA92FE3
:1004C000982F8827820F911DA11DB11DBC01CD0160
:1004D00042E0660F771F881F991F4A95D1F708954C
:1004E00008958091200390912103A0912203B0915F
:1004F00023030196A11DB11D8093F3029093F40292
:10050000A093F502B093F602E0E0F3E011921192AD
:100510001192119283E0E432F807C1F781E08093F1
:10052000F202EC9880E792E090930102809300023F
:100530000895FC01848DDF01A80FB11DA356BF4FA4
:100540002C91848D90E001968F779927848FA689CE
:10055000B7892C93A089B1898C91837080648C9326
:10056000938D848D981306C00288F389E02D8081D5
:100570008F7D80830895CF93DF9390E0FC01E95253
:10058000FE4F2491FC01EF56FE4F8491882361F1C8
:1005900090E0880F991FFC01E35AFE4FC591D4915A
:1005A000FC01E958FE4FA591B491611109C09FB7B4
:1005B000F8948881209582238883EC912E230BC0A8
:1005C000623061F49FB7F8948881322F309583238D
:1005D0008883EC912E2B2C939FBF06C08FB7F89485
:1005E000E8812E2B28838FBFDF91CF9108958F92C2
:1005F0009F92AF92BF92CF92DF92EF92FF926B01E8
:100600007C0149DF4B015C01C114D104E104F10418
:10061000E9F041DFDC01CB0188199909AA09BB097E
:10062000883E9340A105B10578F321E0C21AD108B4
:10063000E108F10888EE880E83E0981EA11CB11C29
:10064000C114D104E104F10421F7DECFFF90EF9053
:10065000DF90CF90BF90AF909F908F9008951F92A2
:100660000F920FB60F9211242F933F938F939F9366
:10067000AF93BF938091F8029091F902A091FA0292
:10068000B091FB023091F70223E0230F2D3720F4C5
:100690000196A11DB11D05C026E8230F0296A11DDC
:1006A000B11D2093F7028093F8029093F902A09372
:1006B000FA02B093FB028091FC029091FD02A0919E
:1006C000FE02B091FF020196A11DB11D8093FC02B4
:1006D0009093FD02A093FE02B093FF02BF91AF91F1
:1006E0009F918F913F912F910F900FBE0F901F9070
:1006F00018951F920F920FB60F9211240BB60F92FE
:100700002F933F934F935F936F937F938F939F9319
:10071000AF93BF93EF93FF93E0910E02F0910F021E
:100720001995FF91EF91BF91AF919F918F917F911B
:100730006F915F914F913F912F910F900BBE0F9052
:100740000FBE0F901F9018951F920F920FB60F9229
:1007500011240BB60F922F933F934F935F936F9398
:100760007F938F939F93AF93BF93EF93FF93E0910A
:100770000C02F0910D021995FF91EF91BF91AF918D
:100780009F918F917F916F915F914F913F912F91A9
:100790000F900BBE0F900FBE0F901F9018951F92D9
:1007A0000F920FB60F9211240BB60F922F933F9317
:1007B0004F935F936F937F938F939F93AF93BF9369
:1007C000EF93FF93E0910202F09103021995FF91DC
:1007D000EF91BF91AF919F918F917F916F915F91B9
:1007E0004F913F912F910F900BBE0F900FBE0F9026
:1007F0001F9018951F920F920FB60F9211240BB6EF
:100800000F922F933F934F935F936F937F938F93A9
:100810009F93AF93BF93EF93FF93E0910002F0910A
:1008200001021995FF91EF91BF91AF919F918F9127
:100830007F916F915F914F913F912F910F900BBEE0
:100840000F900FBE0F901F9018951F920F920FB62A
:100850000F9211240BB60F922F933F934F935F93F8
:100860006F937F938F939F93AF93BF93EF93FF9378
:10087000E0910A02F0910B021995FF91EF91BF915F
:10088000AF919F918F917F916F915F914F913F9128
:100890002F910F900BBE0F900FBE0F901F901895C9
:1008A0001F920F920FB60F9211240BB60F922F9337
:1008B0003F934F935F936F937F938F939F93AF93E8
:1008C000BF93EF93FF93E0910802F091090219950D
:1008D000FF91EF91BF91AF919F918F917F916F9118
:1008E0005F914F913F912F910F900BBE0F900FBED4
:1008F0000F901F9018951F920F920FB60F92112410
:100900000BB60F922F933F934F935F936F937F9309
:100910008F939F93AF93BF93EF93FF93E091060262
:10092000F09107021995FF91EF91BF91AF919F91BF
:100930008F917F916F915F914F913F912F910F9088
:100940000BBE0F900FBE0F901F9018951F920F9225
:100950000FB60F9211240BB60F922F933F934F9324
:100960005F936F937F938F939F93AF93BF93EF9317
:10097000FF93E0910402F09105021995FF91EF9128
:10098000BF91AF919F918F917F916F915F914F91A7
:100990003F912F910F900BBE0F900FBE0F901F90A5
:1009A00018952F923F924F925F926F927F928F9203
:1009B0009F92AF92BF92CF92DF92EF92FF920F93EE
:1009C0001F93CF93DF9300D0CDB7DEB78091200384
:1009D00090912103A0912203B0912303B7FF31C06E
:1009E000EFE1F2E08491E9EDF1E024902B82E3E97C
:1009F000F1E034903982332009F494C28111C7DCCC
:100A00004980E42DF0E0EE0FFF1FED5BFE4FA59156
:100A1000B491EC915B80E52109F484C28091F202EB
:100A2000813079F481E792E0909301028093000293
:100A300080916A008C7F826080936A00EC9A1092A9
:100A4000F2028091200390912103A0912203B091A2
:100A50002303892B8A2B8B2B31F460916C057091C9
:100A60006D0540E045C000E013E01A821982D8010C
:100A70006D917D918D919C91611571058105910517
:100A800061F10E94C61320E030E04BE852E40E947E
:100A900025146B017C0160912003709121038091EA
:100AA0002203909123030E94C6139B01AC01C7014E
:100AB000B6010E9470156B017C0120E030E0A901B5
:100AC0000E940916181624F0F7FAF094F7F8F0943B
:100AD00049815A81C701B6017BD6E981FA813196F5
:100AE000FA83E9830C5F1F4F389709F0C0CFB5CF69
:100AF00020916E05022E000C330B842F90E082179C
:100B00009307ECF4880F991F880F991FFB01E80FDA
:100B1000F91FDC01A050BD4F00811181228133817A
:100B20008D919D910D90BC91A02D800F911FA21FC2
:100B3000B31F80839183A283B3834F5FD9CF60912A
:100B40006A0570916B0540E0842F90E0821793074F
:100B500024F0F12C0FEF1FEF4EC0FC01A4E0EE0FCC
:100B6000FF1FAA95E1F7E60FF71F54855130B1F446
:100B7000880F991F880F991FFC01E050FD4F80815D
:100B80009181A281B381B095A095909581959F4F59
:100B9000AF4FBF4F80839183A283B3834F5FD4CF86
:100BA000DC01AA0FBB1FAA0FBB1FA050BD4F4D9168
:100BB0005D916D917C911397E0916A05F0916B05C1
:100BC00024E0880F991F2A95E1F7E80FF91F77FFB6
:100BD00022C01687058770956095509541955F4FA7
:100BE0006F4F7F4F4D935D936D937C93139761E0AF
:100BF000818123DCF3948F2D90E020916E05022EED
:100C0000000C330B821793075CF210E0CC24CA94DB
:100C1000DC2C760107C022242394312C36862586CD
:100C200060E0E6CF812F90E020916E05022E000C4F
:100C3000330B8217930784F5FC01EE0FFF1FEE0FB5
:100C4000FF1FE050FD4F4081518162817381C40ECE
:100C5000D51EE61EF71E41505109610971094083F6
:100C600051836283738324E0880F991F2A95E1F7EB
:100C700040906A0550906B05480E591E0CDCDC0153
:100C8000CB01845D9E4FAF4FBF4FF20180879187AC
:100C9000A287B3871F5FC6CF88248A94982C5401FB
:100CA000F7FCECC0F8DB2B013C011982F9812F2FF6
:100CB00030E080916E05082E000C990B281739073B
:100CC0000CF0CFC0F901EE0FFF1FEE0FFF1FED5F1D
:100CD000FC4F808187FDC1C0A901E4E0440F551F8E
:100CE000EA95E1F7E0916A05F0916B05E40FF51FD5
:100CF00080859185A285B385481659066A067B06CC
:100D000008F4ABC097858081911160C0863219F1DB
:100D100068F4873021F120F4843031F5A59A24C09D
:100D20008731D9F08D3101F5179A1EC08C3269F0E8
:100D300020F48732C9F4A29A17C0823321F083339A
:100D400099F42A9A11C02B9A0FC080910B018062EE
:100D500080930B0109C05F9A07C0119A05C080916A
:100D6000020180618093020180916A0590916B0578
:100D7000FC01E40FF51F87858095878740855185A5
:100D80006285738584819581A681B781840F951FC3
:100D9000A61FB71F80879187A287B387220F331FB3
:100DA000220F331FF901E050FD4F80819181A28114
:100DB000B3810197A109B10980839183A283B38391
:100DC00021E0C21AD108E108F10847C0863219F1C2
:100DD00068F4873021F120F4843031F5A59824C0DF
:100DE0008731D9F08D3101F517981EC08C3269F02A
:100DF00020F48732C9F4A29817C0823321F08333DC
:100E000099F42A9811C02B980FC080910B018F7D07
:100E100080930B0109C05F9807C0119805C08091AD
:100E200002018F7E80930201E0916A05F0916B05CB
:100E3000E40FF51F878580958787008511852285BA
:100E4000338584819581A681B781800F911FA21F70
:100E5000B31F80879187A287B38739813F5F39832A
:100E600025CF81E494E054DA892B09F067C084E24D
:100E700093E04EDA892B09F061C012CF83EC90E049
:100E80000197F1F719822980822D90E020916E055B
:100E9000022E000C330B8217930794F424E0880F82
:100EA000991F2A95E1F7E0916A05F0916B05E80F2B
:100EB000F91F60E08081C1DA29812F5F2983E3CFA8
:100EC0001A82198249815A8160E070E080E491E4DD
:100ED0007FD489819A8101969A838983089791F7B3
:100EE0008091F202813009F09CC08CE492E075D3CD
:100EF0006091F3027091F4028091F5029091F602F4
:100F000097FF02C046D402C04AE003D48EE592E0C7
:100F100064D31092F3021092F4021092F502109230
:100F2000F6027FC081E692E069D31092200310920E
:100F30002103109222031092230383CD00916A05AE
:100F400010916B05E0916C05F0916D05FA83E983D2
:100F5000712CE72DF0E080916E05082E000C990BA6
:100F6000E817F9070CF09CCEDF0154E0AA0FBB1F75
:100F70005A95E1F7A00FB11F1C962C911C97CF0139
:100F8000880F991F880F991F1D96CD90DC901E9792
:100F9000E980FA80E80EF91E80509D4FDC014D91EA
:100FA0005D916D917C91211114C09A01AB012F5F6D
:100FB0003F4F4F4F5F4FD6010E943716D7012D91FB
:100FC0003D914D915C911397261B370B480B590BA4
:100FD00013C09A01AB012F5F3F4F4F4F5F4FD601B8
:100FE0000E943716D7012D913D914D915C91139739
:100FF000260F371F481F591F2D933D934D935C9328
:101000001397EE0FFF1FEE0FFF1FE050FD4F808282
:101010009182A282B3827394CC24CA94DC2C760190
:1010200098CF0F900F900F90DF91CF911F910F915C
:10103000FF90EF90DF90CF90BF90AF909F908F90F8
:101040007F906F905F904F903F902F900895CF9238
:10105000DF92EF92FF920F931F93CF93DF9300D015
:101060001F92CDB7DEB77E0125E0E20EF11C8E01A6
:101070000F5F1F4F6C01C01AD10AC601800F911F6C
:101080000E94DC14F80181938F01EE15FF05A9F78A
:1010900069817A818B819C810F900F900F900F90C6
:1010A000DF91CF911F910F91FF90EF90DF90CF9044
:1010B00008954F925F926F927F92AF92BF92CF92BC
:1010C000DF92EF92FF920F931F93CF93DF9300D0A5
:1010D0001F92CDB7DEB780E0C82E83E0D82E412C1A
:1010E000512C320100E010E0E0916C05F0916D05AB
:1010F000E00FF11F80819181A281B38189839A835E
:10110000AB83BC83CE0101965C01E12CF12CF5018F
:1011100061915F01C8018E0D9F1D0E94E414FFEFD5
:10112000EF1AFF0A84E0E816F10489F785E892E0F7
:1011300054D24AE0C301B201ECD28BE592E04DD229
:10114000C80185DF97FF02C024D302C04AE0E1D284
:101150008EE592E042D2F601119211921192119213
:101160006F010C5F1F4FFFEF4F1A5F0A6F0A7F0A74
:101170000432110509F0B8CF0F900F900F900F9027
:10118000DF91CF911F910F91FF90EF90DF90CF9063
:10119000BF90AF907F906F905F904F9008950895AB
:1011A000CF92DF92EF92FF920F931F93CF93DF9333
:1011B0006C017A018B01C0E0D0E0CE15DF0581F033
:1011C000D8016D918D01D601ED91FC910190F081D6
:1011D000E02DC6011995892B11F02196EECF7E01E5
:1011E000C701DF91CF911F910F91FF90EF90DF909A
:1011F000CF90089580E090E00895FC01538D448DD8
:10120000252F30E0842F90E0821B930B541718F0A9
:1012100081589F4F08950197089584E293E078D80C
:1012200021E0892B09F420E0822F089581E494E0E5
:101230006FD821E0892B09F420E0822F0895EF92E6
:10124000FF920F931F93CF93DF93EC0181E0888F80
:101250009B8D8C8D981305C0E889F989808185FD67
:1012600025C0F62E0B8D10E00F5F1F4F0F77112753
:10127000E02E8C8DE8120BC00FB607FCFACFE88980
:10128000F989808185FFF5CFCE0153D9F2CF8B8DBF
:10129000FE01E80FF11DE356FF4FF0829FB7F8946F
:1012A0000B8FEA89FB89808180620AC09FB7F8941E
:1012B000EE89FF896083E889F98980818370806481
:1012C00080839FBF81E090E0DF91CF911F910F91CC
:1012D000FF90EF900895CF93DF93EC01888D8823E2
:1012E000C1F0EA89FB89808185FD05C0A889B9899B
:1012F0008C9186FD0EC00FB607FCF5CF808185FF6F
:10130000F2CFA889B9898C9185FFEDCFCE0111D993
:10131000E8CFDF91CF910895FB01DC0111961C927B
:101320001E9213961C921E92129715961C921E9254
:1013300014978617970741F06081718161157105D7
:1013400019F0448155812BC308951F920F920FB657
:101350000F9211240BB60F922F933F934F935F93ED
:101360006F937F938F939F93AF93BF93EF93FF936D
:1013700084E293E0DED8FF91EF91BF91AF919F910E
:101380008F917F916F915F914F913F912F910F902E
:101390000BBE0F900FBE0F901F9018951F920F92CB
:1013A0000FB60F9211240BB60F922F938F939F932A
:1013B000EF93FF93E0913403F09135038081E09146
:1013C0003A03F0913B0382FD12C0908180913D036E
:1013D0008F5F8F7720913E03821751F0E0913D039C
:1013E000F0E0EC5DFC4F958F80933D0301C0808160
:1013F000FF91EF919F918F912F910F900BBE0F90C6
:101400000FBE0F901F9018951F920F920FB60F925C
:1014100011240BB60F922F933F934F935F936F93CB
:101420007F938F939F93AF93BF93EF93FF9381E449
:1014300094E07FD8FF91EF91BF91AF919F918F91F1
:101440007F916F915F914F913F912F910F900BBEC4
:101450000F900FBE0F901F9018951F920F920FB60E
:101460000F9211240BB60F922F938F939F93EF93AC
:10147000FF93E0915104F09152048081E091570470
:10148000F091580482FD12C0908180915A048F5FC0
:101490008F7720915B04821751F0E0915A04F0E0BD
:1014A000EF5BFB4F958F80935A0401C08081FF91C1
:1014B000EF919F918F912F910F900BBE0F900FBEC8
:1014C0000F901F9018950F931F93CF93DF93EC010C
:1014D00088819981009729F02A813B812617370757
:1014E00088F48B016F5F7F4F0E945E17009761F059
:1014F000998388831B830A832C813D81232B11F4DC
:10150000FC01108281E001C080E0DF91CF911F914A
:101510000F9108950E943E180F931F93CF93DF936E
:101520008C01EB01FC01808191810097B1F0688111
:1015300079816115710579F0428153812C813D815A
:101540004217530740F00E9454188C819D81F80186
:101550009583848313C00E94D51688819981F801F0
:10156000918380838A819B81938382838C819D81F7
:1015700095838483198218821B821A821D821C82A1
:10158000DF91CF911F910F910895E1E4F4E0A089DC
:10159000B18982E08C93A485B5851C92A685B78518
:1015A0008FEC8C93108EA489B58986E08C93A289E8
:1015B000B3898C9180618C93A289B3898C91886066
:1015C0008C93A289B3898C9180688C930288F3896B
:1015D000E02D80818F7D80830895009761F0FC016C
:1015E00001900020E9F73197AF01481B590BBC016E
:1015F00081E494E0D5CD80E090E00895CF93DF932F
:10160000ECDFEC018EE592E0E8DF8C0F9D1FDF91AF
:10161000CF9108958F929F92AF92BF92CF92DF9217
:10162000EF92FF920F931F93CF93DF93D82E362F15
:10163000C801B70100916A0510916B05E80150E1FE
:10164000D59EC00DD11D11241F86188619861A86B5
:101650001B8648833A83298320E12B8320E030E0F6
:1016600040E851E40E9425149B01AC0160E07CE756
:1016700082E198E40E9470154B015C0120E030E0AB
:10168000A9010E94091620E030E040E05FE387FDF9
:1016900005C0C501B4010E940C1504C0C501B40108
:1016A0000E940B150E94D8156C837D838E839F83C7
:1016B000CC8681E090E09E878D878D2D90E1890218
:1016C000E0011124F801EC0FFD1F61E081810E940F
:1016D000BB02E0916A05F0916B05EC0FFD1F61E024
:1016E00080810E94BB0280916A0590916B05C80FB2
:1016F000D91F61E08A81DF91CF911F910F91FF90F7
:10170000EF90DF90CF90BF90AF909F908F900C9410
:10171000BB028F929F92AF92BF920F931F93CF9372
:10172000DF93CDB7DEB7A1970FB6F894DEBF0FBE3B
:10173000CDBF19A2423008F44AE08E010F5D1F4F61
:10174000842E912CA12CB12CA50194010E940D1680
:10175000E62FB901CA0101501109EA3014F4E05D25
:1017600001C0E95CD801EC93232B242B252B61F7D6
:10177000C80133DFA1960FB6F894DEBF0FBECDBF10
:10178000DF91CF911F910F91BF90AF909F908F905D
:101790000895CF92DF92EF92FF92CF93DF936B0188
:1017A0007C016DE281E494E04ADDEC016627772755
:1017B000CB016C197D098E099F094AE0AADF8C0FC5
:1017C0009D1FDF91CF91FF90EF90DF90CF90089514
:1017D000CF92DF92EF92FF92CF93DF936B017C0168
:1017E00084E0440F551F8A95E1F7C0916A05D091B6
:1017F0006B05C40FD51F6B8170E080E090E0C6D709
:10180000A70196010E9425149B01AC0160E07CE7D2
:1018100082E198E40E9470156B017C0120E030E0C9
:10182000A9010E94091620E030E040E05FE387FD57
:1018300005C0C701B6010E940C1504C0C701B6015E
:101840000E940B150E94D8156C837D838E839F8325
:10185000DF91CF91FF90EF90DF90CF900895CF93DD
:10186000DF93FC01448155816081718181E494E0C2
:1018700097DCEC018EE592E0B0DE8C0F9D1FDF91CE
:10188000CF910895FC0180819181009709F002C6F3
:1018900060E070E0CB010895FC012481358162177E
:1018A000730720F480819181009729F410926F05CD
:1018B0008FE695E00895860F971F0895FC01248117
:1018C0003581232B31F421E061157105A1F0FB0175
:1018D00008C0FC01808191816115710531F421E01E
:1018E000FC018081882339F005C00E944B1821E05B
:1018F000892B09F020E0822F0895EF92FF920F9339
:101900001F93CF93DF936115710511F480E01BC025
:1019100041155105B9F07B01EC018C819D818A0153
:10192000080F191FB801CE01CEDD882379F3288175
:1019300039818C819D81B701820F931F0E945418B9
:101940001D830C8381E0DF91CF911F910F91FF9058
:10195000EF900895CF93DF931F921F92CDB7DEB71C
:1019600069831A8241E050E0BE016F5F7F4FC5DF9F
:101970000F900F90DF91CF910895CF93DF93EC01FB
:1019800088819981009711F00E94D51619821882DA
:101990001D821C821B821A82DF91CF910895EF92E3
:1019A000FF920F931F93CF93DF93EC017B018A018A
:1019B000BA0189DD811103C0CE01DFDF07C01D83BD
:1019C0000C83B701888199810E945418CE01DF9160
:1019D000CF911F910F91FF90EF900895FC0111821C
:1019E0001082138212821582148240E050E060E679
:1019F00072E0D5CFCF93DF93EC016115710551F003
:101A0000FB0101900020E9F73197AF01461B570B0E
:101A1000C6DF01C0B2DFCE01DF91CF910895BF9242
:101A2000CF92DF92EF92FF920F931F93CF93DF93AA
:101A30007C016B018A01E9012417350720F4812F0D
:101A40008901C42FD82FC701C9DFD60114968D9103
:101A50009C91159708171907C0F48C179D0708F477
:101A6000EC01D601ED91FC911197EC0FFD1FB080B8
:101A700010826D917C91600F711FC701BBDFD60191
:101A8000ED91FC91EC0FFD1FB082C701DF91CF916A
:101A90001F910F91FF90EF90DF90CF90BF9008952E
:101AA000FC01808191810C94D516AF92BF92CF92A8
:101AB000DF92EF92FF920F931F93CF93DF93CDB7F7
:101AC000DEB768970FB6F894DEBF0FBECDBFBC017E
:101AD000CE01439621DC00E010E0B801CE01439630
:101AE000DBDEFC0180818D3519F00F5F1F4FF5CFD4
:101AF000980141E050E0BE016D5E7F4FCE0101963E
:101B00008EDFBE016F5F7F4FCE01439605DDCE01B4
:101B10000196C6DF80E0C82E83E0D82E90E1E92E42
:101B200092E0F92E00E010E0B801CE014396B4DE59
:101B3000FC01808198012F5F3F4F59018C3239F0B1
:101B40008F89988D0817190710F48901EDCF980136
:101B500040E050E0BE016D5E7F4FCE0101965FDF39
:101B6000CE0101968FDEF7012081318142815381C0
:101B7000B7D720E030E0A9010E94091687FD1CC0FC
:101B8000980140E050E0BE016D5E7F4FCE010D96A2
:101B900046DFCE010D9676DEF7012081318142814C
:101BA00053819ED720E030E040E05FE335D70E94CC
:101BB000D81520E011E01AC0980140E050E0BE01C5
:101BC0006D5E7F4FCE0107962ADFCE0107965ADE63
:101BD000F701208131814281538182D720E030E0BA
:101BE00040E05FE318D7E4D721E010E0F60161930D
:101BF0007193819391936F01222319F0CE0107967F
:101C00004FDF112319F0CE010D964ADFCE01019668
:101C100047DF2F89388DA501BE016D5E7F4FCE0154
:101C20000196FDDEBE016F5F7F4FCE01439674DCEF
:101C3000CE01019635DFF4E0EF0EF11C24E3E2164D
:101C400022E0F20609F06ECFCE01439629DF6896B6
:101C50000FB6F894DEBF0FBECDBFDF91CF911F91BD
:101C60000F91FF90EF90DF90CF90BF90AF900895CD
:101C70008EE595E015DF84E695E012CFCF93DF93F4
:101C8000CDB7DEB762970FB6F894DEBF0FBECDBFFB
:101C9000789484B5826084BD84B5816084BD85B547
:101CA000826085BD85B5816085BD80916E00816053
:101CB00080936E00109281008091810082608093F9
:101CC00081008091810081608093810080918000FB
:101CD0008160809380008091B10084608093B10026
:101CE0008091B00081608093B0008091910082600B
:101CF0008093910080919100816080939100809108
:101D000090008160809390008091A1008260809318
:101D1000A1008091A10081608093A1008091A0002A
:101D200081608093A00080912101826080932101D5
:101D30008091210181608093210180912001816047
:101D40008093200180917A00846080937A00809152
:101D50007A00826080937A0080917A00816080931B
:101D60007A0080917A00806880937A001092C10096
:101D70000CDC0BDC68EE73E080E090E00E94F70280
:101D800062E082E00E94BB0281E792E09093010250
:101D90008093000280916A008C7F826080936A0049
:101DA000EC9AC12CE12CF12C00E411E421E343E393
:101DB00065E380E02FDC20E342E364E381E02ADC9A
:101DC000CC24C3942AE24CE26EE282E023DC24E2DB
:101DD00046E268E283E01EDC2BE14DE16FE184E046
:101DE00019DC25E147E169E185E014DCC12C26E03E
:101DF00044E068E086E00EDC25E247E269E287E045
:101E000009DCCC24C394E12CF12C0CE812E429E089
:101E100047E065E088E0FEDBE0906C05F0906D0542
:101E200000E010E0C80113D9D7016D937D938D9325
:101E30009D937D010C5F1F4F0432110599F782E9D4
:101E400092E0DCDB44E2A42E43E0B42E81E494E093
:101E50000E948801892B59F163E070E080E090E0F6
:101E60000E94F70281E494E00E9488011816190686
:101E70006CF781E494E00E946601682F84E695E0A7
:101E800069DDE4CF63E070E080E090E00E94F7025B
:101E900081E494E00E9488011816190644F481E454
:101EA00094E00E946601682F84E695E053DD81E4AA
:101EB00094E00E948801892B29F780916805909110
:101EC0006905892B09F4F3C186EA92E086DB84E692
:101ED00095E0C5DC60E070E084E695E0DDDCFC01C7
:101EE00080818B3509F047C0609168057091690564
:101EF0006250710984E695E0CFDCDC018C918D3570
:101F000071F564E675E0CE01019606DACE01019620
:101F1000CCDDCE010196C4DD60E672E084E695E09A
:101F200069DD20916C0530916D05E0E0F3E0D901A9
:101F30004D915D916D917D919D0180819181A281F5
:101F4000B381841B950BA60BB70B81939193A1933F
:101F5000B193AE16BF0659F70E94D104A6C18DEA0F
:101F600092E03BDB8FEA92E049DB60E672E084E6D8
:101F700095E040DD9CC164E675E0CE010D96CCD9BC
:101F800089899A89892B09F488C168EC72E0CE01AD
:101F90000D9694DC882309F120916C0530916D0534
:101FA000E0E0F3E0D9014D915D916D917D919D014E
:101FB00088279927DC01841B950BA60BB70B81930F
:101FC0009193A193B193AE16BF0661F760E672E0FC
:101FD000CE010D960FDD0E94D1046DEC72E0CE01B2
:101FE0000D966CDC882391F0E0916C05F0916D0505
:101FF000CF0180961192119211921192E817F90770
:10200000C9F760E672E0CE010D96F4DC62ED72E095
:10201000CE010D9653DC882391F0E0916C05F09190
:102020006D05CF0184961192119211921192E817C9
:10203000F907C9F760E672E0CE010D96DBDC00E03F
:1020400010E089899A890817190708F070C0B8014B
:10205000CE010D9621DCFC01808198012F5F3F4F5E
:1020600079018237C1F48901B901CE010D9614DCE2
:10207000DC018C91823359F024F4813361F561E6FF
:1020800037C0833331F0843331F564E631C062E622
:102090002FC063E62DC0B801CE010D96FDDBFC011B
:1020A00080818C36E1F48701B701CE010D96F4DB17
:1020B000DC018C91823359F024F4813361F465E6BC
:1020C00017C0833331F0843331F468E611C066E61B
:1020D0000FC067E60DC08AED92E090DA0CC0B8013F
:1020E000CE010D96D9DBFC018081833621F469E6AF
:1020F0008EE595E02FDC4801FFEF8F1A9F0AEE2452
:10210000E394F12C6401CE0CDF1CB601CE010D96D8
:10211000C3DBDC018C91F70131967F01803209F439
:10212000C9C089899A89C816D90660F3C3C08EE5EB
:1021300095E095DB60E672E08EE595E0BFDB81110E
:10214000A2C06EE575E0CE010796E6D8812C912CF1
:102150008B859C858816990608F090C0B401CE0145
:1021600007969ADBDC010C916401BFEFCB1ADB0A06
:102170003601B601CE0107968FDBFC0180818A32E1
:1021800009F477C0B601CE01079686DBDC018C919D
:10219000833209F46EC0E02E000FFF08B601CE01B5
:1021A00007967ADBFC0180818337A9F48601B801A8
:1021B000CE01079671DBDC018C91803209F4A8C056
:1021C00098012F5F3F4F8B859C850817190708F0F2
:1021D0009FC08901ECCF860168014801B801CE019A
:1021E00007965ADBFC018081803239F00F5F1F4F68
:1021F0008B859C85C816D90678F39401A301BE018E
:10220000695F7F4FCE0101960ADCCE0101963ADB71
:102210002B013C01CE01019643DC870101561109D7
:10222000F801EE0FFF1FEE0FFF1FE05FFD4F208153
:10223000318142815381C301B20152D42B013C014F
:1022400020E030E0A901E5D487FD76C020E030E051
:1022500040E05FE3C301B201DFD3AAD4000F111F36
:10226000000F111FF801E050FD4F608371838283DE
:1022700093834601FFEF8F1A9F0A6ACF0E94D10411
:10228000CE0107960DDC60E672E0CE010D96B2DB62
:1022900060E672E08EE595E0ADDBCE010D9600DCE8
:1022A00060E672E084E695E0A5DB0E9459080E9492
:1022B0009401CCCDA8014E5F5F4F9601BE01635FD4
:1022C0007F4FCE010796ABDBBE01695F7F4FCE012A
:1022D000019622D841E050E06CE572E0CE01019613
:1022E0000CDB882389F04D815E8169817A818EE5DE
:1022F00095E003DBCE010196D3DBCE010796D0DB60
:102300008701080D191D9DCECE01019636DBEBCF5E
:102310009801A601BE01695F7F4FCE0101967FDB68
:10232000CE010196AFDAA7014156510951DACE012B
:102330000196B6DB64019DCF20E030E040E05FE332
:10234000C301B20168D389CF1092270310922603EC
:1023500048EE53E060E070E0409328035093290377
:1023600060932A0370932B038EE392E090932503EE
:102370008093240325ED30E0309331032093300324
:1023800024ED30E0309333032093320320ED30E02E
:10239000309335032093340321ED30E0309337033D
:1023A0002093360322ED30E0309339032093380335
:1023B00026ED30E030933B0320933A0310923D0327
:1023C00010923E0310923F03109240031092440477
:1023D000109243044093450450934604609347048D
:1023E00070934804909342048093410485EC90E0FC
:1023F00090934E0480934D0484EC90E090935004AD
:1024000080934F0480EC90E09093520480935104A9
:1024100081EC90E0909354048093530482EC90E01C
:10242000909356048093550486EC90E09093580462
:102430008093570410925A0410925B0410925C042B
:1024400010925D0460E970E080916A0590916B05DF
:1024500035D590936B0580936A0564E270E08091B6
:102460006C0590916D052AD580936C0590936D0550
:10247000FC01849611921192119211928E179F076E
:10248000C9F789E080936E0584E695E0A7DA8EE5CA
:1024900095E0A4CA6627772700C08F929F92AF92DB
:1024A000BF92CF92DF92EF92FF920F931F93CF9341
:1024B000DF93EC016B016115710519F0FB0191834C
:1024C00080837E01FFEFEF1AFF0A0881802F90E0E2
:1024D00037D1892B11F0E701F4CF0D3239F47E01A9
:1024E00082E0E80EF11C098111E008C00B3229F4EA
:1024F0007E0192E0E90EF11C098110E0E7012197CD
:1025000043E050E060E171E0CE0122D1892BB9F4C3
:10251000239645E050E06BE071E0CE0119D1892BA4
:1025200009F42596C114D10419F0F601D183C083B2
:102530001111F0C060E070E080E89FE7F4C043E074
:1025400050E068E071E0CE0103D1892B59F4C11449
:10255000D10409F4E4C0F2E0EF0EF11CF601F182BF
:10256000E082DDC020E030E0A901C0E0D0E0F7016A
:1025700060EDA62EA00E89E08A1528F1912F9260B9
:10258000B92E812F887012FF04C0811123C02196BB
:1025900021C081112197A5E0B0E024D2DC01CB015C
:1025A000880F991FAA1FBB1F9C01AD012A0D311D69
:1025B000411D511D283989E93807480789E1580725
:1025C00048F0166006C09EEFA9120AC013FD40C075
:1025D0001860B12E8FEFE81AF80A00811B2DC7CFC3
:1025E000802F8F7D8534A1F580818D3211F41061AB
:1025F00006C08B3221F0319661E070E004C0818129
:10260000329662E070E080538A3018F0E61BF70BD8
:102610001FC060E070E060389CE079075CF4DB018B
:10262000AA0FBB1FAA0FBB1F6A0F7B1F660F771F66
:10263000680F711D3196DF0111978C9180538A309C
:1026400050F314FF03C0719561957109C60FD71F30
:1026500011FF08C0C114D10429F0CF010197F60180
:1026600091838083CA01B9018FD0212F2370233039
:1026700019F04B015C0106C04B015C01B7FAB09444
:10268000B7F8B09420E030E0A901C501B40178D0DA
:10269000882309F43CC0D7FF06C0D195C195D10964
:1026A00007E211E002C00FE311E06801F8E1CF1A80
:1026B000D10890E2E92EF12CCE15DF056CF0F8017F
:1026C0002591359145915491C501B401BED04B017E
:1026D0005C01CE19DF09F0CF04501109F594E7949D
:1026E0000C151D0549F78A2D880F8B2D881F8F3FEC
:1026F00041F020E030E0A901C501B40141D08111D1
:1027000006C082E290E09093710580937005C50148
:10271000B40109C060E070E080E89FEF04C060E0B1
:1027200070E080EC9FE7DF91CF911F910F91FF90B8
:10273000EF90DF90CF90BF90AF909F908F900895D3
:102740009111E6C0803219F089508550D0F7089574
:10275000FB01DC014150504088F08D9181341CF028
:102760008B350CF4805E659161341CF06B350CF494
:10277000605E861B611171F3990B0895881BFCCF75
:1027800040D008F481E00895E89409C097FB3EF436
:1027900090958095709561957F4F8F4F9F4F9923AE
:1027A000A9F0F92F96E9BB279395F695879577952C
:1027B0006795B795F111F8CFFAF4BB0F11F460FFEC
:1027C0001BC06F5F7F4F8F4F9F4F16C0882311F044
:1027D00096E911C0772321F09EE8872F762F05C058
:1027E000662371F096E8862F70E060E02AF09A95F3
:1027F000660F771F881FDAF7880F9695879597F9E8
:102800000895990F0008550FAA0BE0E8FEEF161681
:102810001706E807F907C0F012161306E407F507D4
:1028200098F0621B730B840B950B39F40A2661F048
:10283000232B242B252B21F408950A2609F4A140EB
:10284000A6958FEF811D811D08950BD07BC06CD0A4
:1028500028F071D018F0952309F05DC062C01124F2
:10286000A5C081D0A0F3959FD1F3950F50E0551FDF
:10287000629FF001729FBB27F00DB11D639FAA27D5
:10288000F00DB11DAA1F649F6627B00DA11D661F24
:10289000829F2227B00DA11D621F739FB00DA11D45
:1028A000621F839FA00D611D221F749F3327A00DFF
:1028B000611D231F849F600D211D822F762F6A2F9B
:1028C00011249F5750408AF0E1F088234AF0EE0F20
:1028D000FF1FBB1F661F771F881F91505040A9F72D
:1028E0009E3F510570F017C061C05F3FECF3983E0A
:1028F000DCF3869577956795B795F795E7959F5F94
:10290000C1F7FE2B880F911D9695879597F908952D
:1029100099278827089597F99F6780E870E060E01D
:1029200008959FEF80EC089500240A941616170668
:1029300018060906089500240A94121613061406B0
:1029400005060895092E0394000C11F4882352F013
:10295000BB0F40F4BF2B11F460FF04C06F5F7F4FCB
:102960008F4F9F4F089557FD9058440F551F59F0B2
:102970005F3F71F04795880F97FB991F61F09F3F6C
:1029800079F087950895121613061406551FF2CF95
:102990004695F1DF08C0161617061806991FF1CFE5
:1029A00086957105610508940895E894BB2766270C
:1029B0007727CB0197F90895F999FECF92BD81BD94
:1029C000F89A992780B50895262FF999FECF1FBA56
:1029D00092BD81BD20BD0FB6F894FA9AF99A0FBE48
:1029E0000196089509D0A59F900DB49F900DA49FC6
:1029F000800D911D11240895A29FB001B39FC001C5
:102A0000A39F700D811D1124911DB29F700D811D1A
:102A10001124911D08955058BB27AA270ED092CF9C
:102A200083DF30F088DF20F031F49F3F11F41EF493
:102A300078CF0EF4E095E7FB6ECFE92F94DF80F3BB
:102A4000BA17620773078407950718F071F49EF5AB
:102A5000ACCF0EF4E0950B2EBA2FA02D0B01B901CF
:102A600090010C01CA01A0011124FF27591B99F004
:102A7000593F50F4503E68F11A16F040A22F232F10
:102A8000342F4427585FF3CF469537952795A79560
:102A9000F0405395C9F77EF41F16BA0B620B730B07
:102AA000840BBAF09150A1F0FF0FBB1F661F771F78
:102AB000881FC2F70EC0BA0F621F731F841F48F42D
:102AC000879577956795B795F7959E3F08F0B3CFB3
:102AD0009395880F08F09927EE0F9795879508959D
:102AE0000CD030CF28DF40F01FDF30F021F45F3F03
:102AF00019F011CF51115ACF14CF35DF98F3992324
:102B0000C9F35523B1F3951B550BBB27AA276217B1
:102B10007307840738F09F5F5F4F220F331F441FF6
:102B2000AA1FA9F333D00E2E3AF0E0E830D091502E
:102B30005040E695001CCAF729D0FE2F27D0660F1B
:102B4000771F881FBB1F261737074807AB07B0E85A
:102B500009F0BB0B802DBF01FF2793585F4F2AF070
:102B60009E3F510568F0D7CE21CF5F3FECF3983EF2
:102B7000DCF3869577956795B795F7959F5FC9F7CD
:102B8000880F911D9695879597F90895E1E0660F56
:102B9000771F881FBB1F621773078407BA0720F0CF
:102BA000621B730B840BBA0BEE1F88F7E095089538
:102BB00004D06894B111FACE0895DDDE88F09F57F5
:102BC00090F0B92F9927B751A0F0D1F0660F771F79
:102BD000881F991F1AF0BA95C9F712C0B13081F059
:102BE000E4DEB1E00895E1CE672F782F8827B85F43
:102BF00039F0B93FCCF3869577956795B395D9F7BA
:102C00003EF490958095709561957F4F8F4F9F4FC3
:102C10000895F7DD08F48FEF0895A1E21A2EAA1B9C
:102C2000BB1BFD010DC0AA1FBB1FEE1FFF1FA2177C
:102C3000B307E407F50720F0A21BB30BE40BF50B79
:102C4000661F771F881F991F1A9469F76095709502
:102C5000809590959B01AC01BD01CF010895EE0FC9
:102C6000FF1F881F8BBF0790F691E02D1994B7FFC7
:102C7000B9CEB8DE821B930B08950F931F93CF93A9
:102C8000DF938230910510F482E090E0E0917405CA
:102C9000F091750520E030E0A0E0B0E0309719F148
:102CA000408151810281138148175907C8F0841768
:102CB000950769F4109731F012960C9312971396BA
:102CC0001C9327C0009374051093750522C021152D
:102CD000310519F04217530718F49A01BD01EF01AD
:102CE000DF01F801DBCF21153105F9F0281B390B85
:102CF0002430310580F48A819B816115710521F0B2
:102D0000FB019383828304C09093750580937405BF
:102D1000FE01329644C0FE01E20FF31F81939193AE
:102D200022503109398328833AC0209172053091AD
:102D30007305232B41F420913602309137023093F2
:102D400073052093720520913402309135022115CC
:102D5000310541F42DB73EB7409138025091390208
:102D6000241B350BE0917205F0917305E217F30710
:102D7000A0F42E1B3F0B2817390778F0AC014E5FEB
:102D80005F4F2417350748F04E0F5F1F50937305B0
:102D9000409372058193919302C0E0E0F0E0CF018F
:102DA000DF91CF911F910F910895CF93DF930097FB
:102DB00009F481C0FC01329713821282A09174053C
:102DC000B0917505109781F420813181820F931F96
:102DD00020917205309173052817390751F5F0934A
:102DE0007305E093720567C0ED0120E030E0CE1777
:102DF000DF0740F44A815B819E0141155105F1F0E6
:102E0000EA01F5CFD383C28340815181840F951F9E
:102E1000C817D90759F488819981840F951F0296A4
:102E2000918380838A819B819383828321153105DD
:102E300029F4F0937505E09374053DC0E901FB8327
:102E4000EA8349915991C40FD51FEC17FD0761F42E
:102E500080819181840F951F0296E901998388836F
:102E6000828193819B838A83E0E0F0E012968D91CA
:102E70009C911397009719F0FD01DC01F7CF8D911C
:102E80009C9111979D012E5F3F4F820F931F2091C0
:102E90007205309173052817390769F4309729F4C2
:102EA000109275051092740502C013821282B093BD
:102EB0007305A0937205DF91CF9108956F927F9271
:102EC0008F929F92AF92BF92CF92DF92EF92FF923A
:102ED0000F931F93CF93DF93009781F4CB01DF9182
:102EE000CF911F910F91FF90EF90DF90CF90BF9007
:102EF000AF909F908F907F906F90BFCEFC01E60FB8
:102F0000F71F9C0122503109E217F30708F4A5C00E
:102F1000EC01D9010D911C91119706171707A8F024
:102F20000530110508F497C0C80104978617970764
:102F300008F491C002501109061B170B019311935D
:102F40006D937C93CF0131DF86C05B01A01AB10A7B
:102F50004C01800E911EA0917405B0917505612CF5
:102F6000712CE12CF12C109709F446C08D919C91A5
:102F70001197A815B905B1F56C0142E0C40ED11C3A
:102F8000CA14DB0478F14C018A189B08640142E002
:102F9000C40ED11C1296BC9012971396AC91B5E05A
:102FA000CB16D10440F0B282A38391828082D901F2
:102FB0006D937C9309C00E5F1F4F800F911FF90125
:102FC00091838083EB2DFA2FE114F10431F0D701C6
:102FD0001396FC93EE9312973EC0F0937505E09321
:102FE000740539C06816790608F43C017D01129613
:102FF0000D90BC91A02DB7CF809172059091730573
:1030000088169906E1F466167706C8F480913402B2
:1030100090913502009741F48DB79EB740913802E8
:1030200050913902841B950BE817F907B0F4F0931F
:103030007305E0937205F901718360830CC0CB01C5
:103040001CDE7C01009749F0A801BE011BD0CE0117
:10305000ACDEC70104C0CE0102C080E090E0DF9189
:10306000CF911F910F91FF90EF90DF90CF90BF9085
:10307000AF909F908F907F906F90089581E090E047
:10308000F89419C0FB01DC0102C001900D9241507F
:103090005040D8F70895FB01DC018D910190801913
:1030A0000110D9F3990B0895FB01DC0101900D92F9
:1030B0000020E1F7089511E0C3E3D1E000E005C08E
:1030C000802FFE01CCDD2196011DC433D10780E0A5
:0830D0000807B1F7F894FFCFE7
:1030D8007002700270027002700270027002700258
:1030E800813C9F3C813C9F3C813C9F3C813C9F3C78
:1030F800813C9F3C813C9F3C813C9F3C813C9F3C68
:10310800CDCCCC3A000076058000000000001F09F5
:10311800D008FD086B09880166017A01436F756E56
:103128007420696E746572727570743A20000D0AA5
:103138000043616E6074206D6F7665206261636B19
:1031480021212120496E7465727275707420616C3A
:103158006572742100454550524F4D204461746199
:103168002000436F6E74726F6C6C657220737461AB
:10317800727465642100494E5055543A0054004514
:1031880052524F523A20537472696E6720636F72BD
:1031980072757074212121004261636B005A657257
:1031A8006F005A65726F416C6C0057726F6E6720C2
:1031B8006E756D626572206F66204D6F746F722137
:0231C800000005
:00000001FF
